:1000000045EF00F00000000000EF00F000000000ED
:0A0010000000000000000000F3D71C
:10001C00C69AFF0E1B6EFF0E1C6EFF0E1D6EFF0EA2
:10002C001E6E4E0E176E000E186E210E196E000EFF
:10003C001A6E949A94969488C66A400EC76EC68AB5
:02004C001200A0
:10004E0021C0C9FFC7B002D00000FCD7C9CF00F055
:02005E0012008E
:10006000829020C000F0016A0F0E0014216E300E45
:0E0070002112EDDF1FC021F0EADF82801200B6
:0C007E009280928282809490CADF12006F
:10008A000F01386B396B3A6B3B6B3C6BF3DF000E3D
:10009A00156E080E166E80A009D00F0E165C02E1CE
:1000AA00FF0E155C03E2154A162A0ED080A20CD068
:1000BA00000E006E1650005C02E11550000804E2C2
:1000CA00010E155E000E165A15C01FF016C020F05C
:1000DA00C2DF030E0C6E970E0D6E0D2EFED70C2E80
:0A00EA00FCD700000000D7D7FFD7B5
:020000040030CA
:0D000100231F3CFFBF81FF0FC00FE00F4029
:00000001FF
