:1000000050EF00F00000000000EF00F000000000E2
:0A0010000000000000000000F3D71C
:10001C00020E0C6E490E0D6E0D2EFED70C2EFCD75B
:06002C00000000001200BC
:100032001C6A18C001F0010E006E015004E0003687
:100042000090FF0FFBD700C01BF016C0E9FF17C0DE
:10005200EAFF0050EE14016E0152010ED8A4000E08
:10006200006E1A50001A18E01950000804E2D5DF99
:10007200D4DF1906F9D716C0E9FF17C0EAFF1B50F3
:10008200EE14016E0152010ED8A4000E006E1A5039
:0E009200001A02E0FF0E1C6E1CC000F01200EF
:1000A0000F01386B396B3A6B3B6B3C6B799E789EDA
:1000B0009380946AFF0E826E1590810E166E0F0E5D
:1000C000176E186A010E196E010E1A6EB2DF005219
:1000D000D8A4158015A00DD0810E166E0F0E176EC8
:1000E000186A010E196E1A6AA4DF005202E0821E1D
:0600F0001590E3D7FFD7D5
:020000040030CA
:0D000100231F3CFFBF81FF0FC00FE00F4029
:00000001FF
