:1000000039EF00F00000000000EF00F000000000F9
:0A0010000000000000000000F3D71C
:10001C00A69C17C0AAFF16C0A9FFA69EA680A8CFB3
:04002C0000F01200CE
:10003000A6A202D00000FCD7A69C17C0AAFF16C03B
:10004000A9FF18C0A8FFA69EA684F2CF00F0F29EDA
:10005000550EA76EAA0EA76EA68200BE02D0F29E13
:1000600001D0F28EA694A1B802D00000FCD7A198CE
:0200700012007C
:100072000F01386B396B3A6B3B6B3C6B799E789E08
:10008200816A826A836A936A946A956A156A200E03
:10009200155C0BE21550800F166E176A000E1722C0
:1000A20015C018F0C4DF152AF2D7020E166E000E24
:1000B200176EAA0E186EBBDF500E166E000E176E6C
:1000C200550E186EB4DF0B0E0B6E260E0C6E5D0E07
:1000D2000D6E0D2EFED70C2EFCD70B2EFAD700007C
:1000E2000000FF0E816EFF0E826E0B0E0B6E260E4F
:1000F2000C6E5D0E0D6E0D2EFED70C2EFCD70B2E48
:10010200FAD700000000816A826A0B0E0B6E260E7F
:100112000C6E5D0E0D6E0D2EFED70C2EFCD70B2E27
:10012200FAD700000000020E166E000E176E75DF81
:1001320000C081FF500E166E000E176E6EDF00C0FB
:1001420082FF0B0E0B6E260E0C6E5D0E0D6E0D2ECB
:10015200FED70C2EFCD70B2EFAD700000000156A32
:10016200200E155C19E21550800F166E176A000EEC
:10017200172253DF00C083FF030E0B6E8A0E0C6E34
:10018200550E0D6E0D2EFED70C2EFCD70B2EFAD768
:0C01920000000000152AE4D779D7FFD741
:020000040030CA
:0D000100231F3CFFBF81FF0FC00FE00F4029
:00000001FF
