:1000000055EF00F00000000000EF00F000000000DD
:0A0010000000000000000000F3D71C
:0C001C000E0E0D6E0D2EFED7000012001F
:100028000900F5CFE6FF0006FBE10106F9E1120041
:10003800C26A151C006E0050C1160F0EC012C08E89
:1000480018C000F000360090003600900050C21230
:10005800C280E0DFC282C2A201D0FDD7C4CF01F0C6
:10006800006A00C019F001C01AF0C3500012000E57
:10007800011200C019F001C01AF0C290000E00145D
:10008800026E0150800B036E000E031802E1000E91
:10009800021802E0196A1A6A19C000F01AC001F0C1
:0200A800120044
:1000AA0075EC00F0040E0F01386F396B3A6B3B6B3D
:1000BA003C6B799E789EFF0E926E946A936A020E4A
:1000CA00186EB5DF00C016F001C017F000C081FF3E
:0E00DA0001C002F0036A02C082FFF1D7FFD717
:1000EA0010EE15F0010E006E010E016EE80EF66EAE
:0E00FA00000EF76E000EF86E14EC00F012000F
:0100E8000F08
:020000040030CA
:0D000100231F3CFFBF81FF0FC00FE00F4029
:00000001FF
