:10000000CFEF00F00000000000EF00F00000000063
:0A0010000000000000000000F3D71C
:08001C00BE6ABD98BD9A1200F6
:08002400676A6698669A1200F3
:10002C000B6A0A6A096A00500402F4CF09F0F3CF94
:10003C0008F001500502F4CF0BF0F3CF0AF000509A
:10004C000502F3500926F4500A22E86A0B220150EB
:10005C000402F3500926F4500A22E86A0B2208C065
:10006C0000F009C001F00AC002F00BC003F012004E
:10007C00BB50010F006E016A000E012217C004F084
:10008C00000E056ECDDF060E026E00C004F001C03E
:10009C0005F0025005E005320432059EFF0FFAD739
:1000AC00040E016E04C000F0015004E00036009014
:1000BC00FF0FFBD7300E0014036E04C000F005C018
:1000CC0001F001320032019E01320032019E00C06B
:0C00DC00BEFF0F0EBD160350BD12120037
:0A00E8009492BA840C0E6612120006
:0A00F2009494BA840C0EBD121200A3
:1000FC000F01386B396B3A6B3B6B3C6B799E789E7E
:10010C00FF0E806EFF0E926E816A936A826A946A09
:10011C00BA90BA92630EBB6E7BDFBA90BA92630E42
:06012C00BB6E7ADF120039
:10013200BB50010F006E016A000E012217C004F0CD
:10014200000E056E72DF060E026E00C004F001C0E2
:1001520005F0025005E005320432059EFF0FFAD782
:10016200040E016E04C000F0015004E0003600905D
:10017200FF0FFBD7300E0014036E04C000F005C061
:1001820001F001320032019E01320032019E00C0B4
:0C01920067FF0F0E661603506612120085
:10019E00AEDF100E166E100E156EA4DF9EDF16C0AB
:1001AE0017F065DF15C017F0BDDF80A00DD0680E0B
:1001BE000C6EE40E0D6E0D2EFED70C2EFCD700002D
:1001CE00162A16C017F053DF80A20DD0680E0C6EE3
:1001DE00E40E0D6E0D2EFED70C2EFCD7000016066B
:1001EE0016C017F044DF80A40DD0680E0C6EE40E1E
:1001FE000D6E0D2EFED70C2EFCD70000152A15C045
:10020E0017F090DF80A60DD0680E0C6EE40E0D6E0A
:10021E000D2EFED70C2EFCD70000150615C017F0BC
:10022E0081DF0D0E0C6EFB0E0D6E0D2EFED70C2EFD
:0A023E00FCD700000000B9D7FFD77D
:020000040030CA
:0D000100231F3CFFBF81FF0FC00FE00F4029
:00000001FF
