:1000000004EF01F00000000000EF00F0000000002D
:0A0010000000000000000000F3D71C
:10001C000F0E0C6E470E0D6E0D2EFED70C2EFCD750
:06002C00000000001200BC
:06003200000000001200B6
:0A003800210E0D6E0D2EFED71200F2
:1000420047BE02D0819601D0818647BC02D08194FE
:1000520001D0818447BA02D0819201D0818247B80F
:1000620002D0819001D081803FB002D0818801D03E
:100072008198818ADDDF819A47B602D0819601D0CC
:10008200818647B402D0819401D0818447B202D0E4
:10009200819201D0818247B002D0819001D08180CB
:1000A2003FB002D0818801D08198818AC1DF819AD4
:0C00B2003FA002D0B2DF01D0BEDF120080
:0C00BE003F9046C047F0BEDF3F801200BC
:1000CA00939A93989390939293949396819A819802
:1000DA0081968194819281909CDF9BDF9ADF818255
:1000EA008180818AA1DF819A94DF818A9DDF819A4A
:1000FA0090DF818A99DF819A8CDF8190818A94DFEF
:10010A00819A87DF818A90DF819A81928186818AAA
:10011A008BDF819A7EDF81968180818A85DF819A51
:10012A008190818A81DF819A74DF818A7DDF819A59
:10013A008180818A79DF819A6CDF8190818A74DF7C
:10014A00819A8186818481828180818A6DDF819A08
:06015A0060DF3F8012008F
:100160000900F5CFE6FF0006FBE10106F9E1120008
:10017000060E0B6E130E0C6EAD0E0D6E0D2EFED711
:0E0180000C2EFCD70B2EFAD700000000120048
:10018E000FD0800E416E19D0C00E416E16D0940E57
:10019E00416E13D0D40E416E10D0800E416E0DD034
:1001AE004150010AEEE04150020AEEE04150030ACE
:1001BE00EEE04150040AEEE0F0D74204006E4150EA
:1001CE00002600C041F000C047F034DF3F90456A82
:1001DE0045504324E96E000E4420EA6EEE520BE0C9
:1001EE0045504324E96E000E4420EA6EEECF46F0F1
:0A01FE005FDF452AEDD73F801200B5
:100208008BEC01F00F01386B396B3A6B3B6B3C6B35
:10021800799E789E56DF010E476E0FDF0C0E476EF3
:100228000CDF010E416E060E426E150E436E000E77
:10023800446EA9DF020E416E060E426E2E0E436E0C
:10024800000E446EA0DF150E0B6E4B0E0C6EBE0E2C
:100258000D6E0D2EFED70C2EFCD70B2EFAD70000F4
:10026800010E476EEADE010E416E010E426E1D0E52
:10027800436E000E446E87DF020E416E050E426E1D
:10028800360E436E000E446E7EDF150E0B6E4B0E5F
:100298000C6EBE0E0D6E0D2EFED70C2EFCD70B2E3F
:1002A800FAD70000406A040E405C06E21C0E476E56
:1002B800C4DE5ADF402AF7D7406A080E405C06E2DF
:1002C800180E476EBADE50DF402AF7D7406A080E8C
:1002D800405C06E21C0E476EB0DE46DF402AF7D7C8
:0402E800EBD7FFD77A
:1003160010EE15F02A0E006E010E016EEC0EF66E52
:0E032600020EF76E000EF86EB0EC00F0120042
:0802EC004C6364346269740084
:1002F4006D696B726F456C656B74726F6E696B615F
:0103040000F8
:080305006578616D706C650004
:09030D0045617379504943360043
:020000040030CA
:0D000100231F3CFFBF81FF0FC00FE00F4029
:00000001FF
